{
  "_format": "hh-sol-artifact-1",
  "contractName": "SaveERC20",
  "sourceName": "contracts/SaveERC20.sol",
  "abi": [
    {
      "inputs": [
        {
          "internalType": "address",
          "name": "_tokenAddress",
          "type": "address"
        }
      ],
      "stateMutability": "nonpayable",
      "type": "constructor"
    },
    {
      "anonymous": false,
      "inputs": [
        {
          "indexed": true,
          "internalType": "address",
          "name": "user",
          "type": "address"
        },
        {
          "indexed": true,
          "internalType": "uint256",
          "name": "amount",
          "type": "uint256"
        }
      ],
      "name": "DepositSuccessful",
      "type": "event"
    },
    {
      "anonymous": false,
      "inputs": [
        {
          "indexed": true,
          "internalType": "address",
          "name": "from",
          "type": "address"
        },
        {
          "indexed": true,
          "internalType": "address",
          "name": "_to",
          "type": "address"
        },
        {
          "indexed": true,
          "internalType": "uint256",
          "name": "amount",
          "type": "uint256"
        }
      ],
      "name": "TransferSuccessful",
      "type": "event"
    },
    {
      "anonymous": false,
      "inputs": [
        {
          "indexed": true,
          "internalType": "address",
          "name": "user",
          "type": "address"
        },
        {
          "indexed": true,
          "internalType": "uint256",
          "name": "amount",
          "type": "uint256"
        }
      ],
      "name": "WithdrawalSuccessful",
      "type": "event"
    },
    {
      "inputs": [
        {
          "internalType": "uint256",
          "name": "_amount",
          "type": "uint256"
        }
      ],
      "name": "deposit",
      "outputs": [],
      "stateMutability": "nonpayable",
      "type": "function"
    },
    {
      "inputs": [
        {
          "internalType": "address",
          "name": "_user",
          "type": "address"
        },
        {
          "internalType": "uint256",
          "name": "_amount",
          "type": "uint256"
        }
      ],
      "name": "depositForAnotherUser",
      "outputs": [],
      "stateMutability": "nonpayable",
      "type": "function"
    },
    {
      "inputs": [
        {
          "internalType": "address",
          "name": "_user",
          "type": "address"
        },
        {
          "internalType": "uint256",
          "name": "_amount",
          "type": "uint256"
        }
      ],
      "name": "depositForAnotherUserFromWithin",
      "outputs": [],
      "stateMutability": "nonpayable",
      "type": "function"
    },
    {
      "inputs": [
        {
          "internalType": "address",
          "name": "_user",
          "type": "address"
        }
      ],
      "name": "getAnyBalance",
      "outputs": [
        {
          "internalType": "uint256",
          "name": "",
          "type": "uint256"
        }
      ],
      "stateMutability": "view",
      "type": "function"
    },
    {
      "inputs": [],
      "name": "getContractBalance",
      "outputs": [
        {
          "internalType": "uint256",
          "name": "",
          "type": "uint256"
        }
      ],
      "stateMutability": "view",
      "type": "function"
    },
    {
      "inputs": [],
      "name": "myBalance",
      "outputs": [
        {
          "internalType": "uint256",
          "name": "",
          "type": "uint256"
        }
      ],
      "stateMutability": "view",
      "type": "function"
    },
    {
      "inputs": [
        {
          "internalType": "uint256",
          "name": "_amount",
          "type": "uint256"
        }
      ],
      "name": "ownerWithdraw",
      "outputs": [],
      "stateMutability": "nonpayable",
      "type": "function"
    },
    {
      "inputs": [
        {
          "internalType": "address",
          "name": "_to",
          "type": "address"
        },
        {
          "internalType": "uint256",
          "name": "_amount",
          "type": "uint256"
        }
      ],
      "name": "transferFunds",
      "outputs": [],
      "stateMutability": "nonpayable",
      "type": "function"
    },
    {
      "inputs": [
        {
          "internalType": "uint256",
          "name": "_amount",
          "type": "uint256"
        }
      ],
      "name": "withdraw",
      "outputs": [],
      "stateMutability": "nonpayable",
      "type": "function"
    }
  ],
  "bytecode": "0x60806040523480156200001157600080fd5b5060405162001ba038038062001ba0833981810160405281019062000037919062000129565b336000806101000a81548173ffffffffffffffffffffffffffffffffffffffff021916908373ffffffffffffffffffffffffffffffffffffffff16021790555080600160006101000a81548173ffffffffffffffffffffffffffffffffffffffff021916908373ffffffffffffffffffffffffffffffffffffffff160217905550506200015b565b600080fd5b600073ffffffffffffffffffffffffffffffffffffffff82169050919050565b6000620000f182620000c4565b9050919050565b6200010381620000e4565b81146200010f57600080fd5b50565b6000815190506200012381620000f8565b92915050565b600060208284031215620001425762000141620000bf565b5b6000620001528482850162000112565b91505092915050565b611a35806200016b6000396000f3fe608060405234801561001057600080fd5b50600436106100925760003560e01c80636f9fb98a116100665780636f9fb98a1461011b578063719a81df14610139578063990dc9db14610155578063b6b55f2514610171578063c9116b691461018d57610092565b8062e8ade4146100975780632e1a7d4d146100b35780632e9ad467146100cf57806333f707d1146100ff575b600080fd5b6100b160048036038101906100ac9190611396565b6101ab565b005b6100cd60048036038101906100c891906113d6565b6103bb565b005b6100e960048036038101906100e49190611403565b610633565b6040516100f6919061143f565b60405180910390f35b610119600480360381019061011491906113d6565b61070a565b005b61012361093a565b604051610130919061143f565b60405180910390f35b610153600480360381019061014e9190611396565b610a6b565b005b61016f600480360381019061016a9190611396565b610d2a565b005b61018b600480360381019061018691906113d6565b610fe0565b005b6101956112b6565b6040516101a2919061143f565b60405180910390f35b600073ffffffffffffffffffffffffffffffffffffffff163373ffffffffffffffffffffffffffffffffffffffff160361021a576040517f08c379a0000000000000000000000000000000000000000000000000000000008152600401610211906114b7565b60405180910390fd5b600073ffffffffffffffffffffffffffffffffffffffff168273ffffffffffffffffffffffffffffffffffffffff1603610289576040517f08c379a000000000000000000000000000000000000000000000000000000000815260040161028090611523565b60405180910390fd5b80600260003373ffffffffffffffffffffffffffffffffffffffff1673ffffffffffffffffffffffffffffffffffffffff16815260200190815260200160002054101561030b576040517f08c379a00000000000000000000000000000000000000000000000000000000081526004016103029061158f565b60405180910390fd5b80600260003373ffffffffffffffffffffffffffffffffffffffff1673ffffffffffffffffffffffffffffffffffffffff168152602001908152602001600020600082825461035a91906115de565b9250508190555080600260008473ffffffffffffffffffffffffffffffffffffffff1673ffffffffffffffffffffffffffffffffffffffff16815260200190815260200160002060008282546103b09190611612565b925050819055505050565b600073ffffffffffffffffffffffffffffffffffffffff163373ffffffffffffffffffffffffffffffffffffffff160361042a576040517f08c379a000000000000000000000000000000000000000000000000000000000815260040161042190611692565b60405180910390fd5b6000811161046d576040517f08c379a0000000000000000000000000000000000000000000000000000000008152600401610464906116fe565b60405180910390fd5b6000600260003373ffffffffffffffffffffffffffffffffffffffff1673ffffffffffffffffffffffffffffffffffffffff168152602001908152602001600020549050808211156104f4576040517f08c379a00000000000000000000000000000000000000000000000000000000081526004016104eb9061176a565b60405180910390fd5b81600260003373ffffffffffffffffffffffffffffffffffffffff1673ffffffffffffffffffffffffffffffffffffffff168152602001908152602001600020600082825461054391906115de565b92505081905550600160009054906101000a900473ffffffffffffffffffffffffffffffffffffffff1673ffffffffffffffffffffffffffffffffffffffff1663a9059cbb33846040518363ffffffff1660e01b81526004016105a7929190611799565b6020604051808303816000875af11580156105c6573d6000803e3d6000fd5b505050506040513d601f19601f820116820180604052508101906105ea91906117fa565b50813373ffffffffffffffffffffffffffffffffffffffff167ff4f855c53853d0277a9ff688aadbfe4cb795ca1d5af41704b62cb539f89939ec60405160405180910390a35050565b60003373ffffffffffffffffffffffffffffffffffffffff1660008054906101000a900473ffffffffffffffffffffffffffffffffffffffff1673ffffffffffffffffffffffffffffffffffffffff16146106c3576040517f08c379a00000000000000000000000000000000000000000000000000000000081526004016106ba90611873565b60405180910390fd5b600260008373ffffffffffffffffffffffffffffffffffffffff1673ffffffffffffffffffffffffffffffffffffffff168152602001908152602001600020549050919050565b3373ffffffffffffffffffffffffffffffffffffffff1660008054906101000a900473ffffffffffffffffffffffffffffffffffffffff1673ffffffffffffffffffffffffffffffffffffffff1614610798576040517f08c379a000000000000000000000000000000000000000000000000000000000815260040161078f90611873565b60405180910390fd5b80600160009054906101000a900473ffffffffffffffffffffffffffffffffffffffff1673ffffffffffffffffffffffffffffffffffffffff166370a08231306040518263ffffffff1660e01b81526004016107f49190611893565b602060405180830381865afa158015610811573d6000803e3d6000fd5b505050506040513d601f19601f8201168201806040525081019061083591906118c3565b1015610876576040517f08c379a000000000000000000000000000000000000000000000000000000000815260040161086d9061193c565b60405180910390fd5b600160009054906101000a900473ffffffffffffffffffffffffffffffffffffffff1673ffffffffffffffffffffffffffffffffffffffff1663a9059cbb60008054906101000a900473ffffffffffffffffffffffffffffffffffffffff16836040518363ffffffff1660e01b81526004016108f3929190611799565b6020604051808303816000875af1158015610912573d6000803e3d6000fd5b505050506040513d601f19601f8201168201806040525081019061093691906117fa565b5050565b60003373ffffffffffffffffffffffffffffffffffffffff1660008054906101000a900473ffffffffffffffffffffffffffffffffffffffff1673ffffffffffffffffffffffffffffffffffffffff16146109ca576040517f08c379a00000000000000000000000000000000000000000000000000000000081526004016109c190611873565b60405180910390fd5b600160009054906101000a900473ffffffffffffffffffffffffffffffffffffffff1673ffffffffffffffffffffffffffffffffffffffff166370a08231306040518263ffffffff1660e01b8152600401610a259190611893565b602060405180830381865afa158015610a42573d6000803e3d6000fd5b505050506040513d601f19601f82011682018060405250810190610a6691906118c3565b905090565b600073ffffffffffffffffffffffffffffffffffffffff163373ffffffffffffffffffffffffffffffffffffffff1603610ada576040517f08c379a0000000000000000000000000000000000000000000000000000000008152600401610ad1906114b7565b60405180910390fd5b600073ffffffffffffffffffffffffffffffffffffffff168273ffffffffffffffffffffffffffffffffffffffff1603610b49576040517f08c379a0000000000000000000000000000000000000000000000000000000008152600401610b4090611523565b60405180910390fd5b6000600160009054906101000a900473ffffffffffffffffffffffffffffffffffffffff1673ffffffffffffffffffffffffffffffffffffffff166370a08231336040518263ffffffff1660e01b8152600401610ba69190611893565b602060405180830381865afa158015610bc3573d6000803e3d6000fd5b505050506040513d601f19601f82011682018060405250810190610be791906118c3565b905081811015610c2c576040517f08c379a0000000000000000000000000000000000000000000000000000000008152600401610c239061176a565b60405180910390fd5b600160009054906101000a900473ffffffffffffffffffffffffffffffffffffffff1673ffffffffffffffffffffffffffffffffffffffff166323b872dd3330856040518463ffffffff1660e01b8152600401610c8b9392919061195c565b6020604051808303816000875af1158015610caa573d6000803e3d6000fd5b505050506040513d601f19601f82011682018060405250810190610cce91906117fa565b5081600260008573ffffffffffffffffffffffffffffffffffffffff1673ffffffffffffffffffffffffffffffffffffffff1681526020019081526020016000206000828254610d1e9190611612565b92505081905550505050565b600073ffffffffffffffffffffffffffffffffffffffff163373ffffffffffffffffffffffffffffffffffffffff1603610d99576040517f08c379a0000000000000000000000000000000000000000000000000000000008152600401610d90906114b7565b60405180910390fd5b600073ffffffffffffffffffffffffffffffffffffffff168273ffffffffffffffffffffffffffffffffffffffff1603610e08576040517f08c379a0000000000000000000000000000000000000000000000000000000008152600401610dff90611523565b60405180910390fd5b80600260003373ffffffffffffffffffffffffffffffffffffffff1673ffffffffffffffffffffffffffffffffffffffff168152602001908152602001600020541015610e8a576040517f08c379a0000000000000000000000000000000000000000000000000000000008152600401610e81906119df565b60405180910390fd5b80600260003373ffffffffffffffffffffffffffffffffffffffff1673ffffffffffffffffffffffffffffffffffffffff1681526020019081526020016000206000828254610ed991906115de565b92505081905550600160009054906101000a900473ffffffffffffffffffffffffffffffffffffffff1673ffffffffffffffffffffffffffffffffffffffff1663a9059cbb83836040518363ffffffff1660e01b8152600401610f3d929190611799565b6020604051808303816000875af1158015610f5c573d6000803e3d6000fd5b505050506040513d601f19601f82011682018060405250810190610f8091906117fa565b50808273ffffffffffffffffffffffffffffffffffffffff163373ffffffffffffffffffffffffffffffffffffffff167fd6d3eb25a413c05d8107fc49deb2789bef7f612582b2482804c0b0423b6638ee60405160405180910390a45050565b600073ffffffffffffffffffffffffffffffffffffffff163373ffffffffffffffffffffffffffffffffffffffff160361104f576040517f08c379a000000000000000000000000000000000000000000000000000000000815260040161104690611692565b60405180910390fd5b60008111611092576040517f08c379a0000000000000000000000000000000000000000000000000000000008152600401611089906116fe565b60405180910390fd5b6000600160009054906101000a900473ffffffffffffffffffffffffffffffffffffffff1673ffffffffffffffffffffffffffffffffffffffff166370a08231336040518263ffffffff1660e01b81526004016110ef9190611893565b602060405180830381865afa15801561110c573d6000803e3d6000fd5b505050506040513d601f19601f8201168201806040525081019061113091906118c3565b905081811015611175576040517f08c379a000000000000000000000000000000000000000000000000000000000815260040161116c9061176a565b60405180910390fd5b600160009054906101000a900473ffffffffffffffffffffffffffffffffffffffff1673ffffffffffffffffffffffffffffffffffffffff166323b872dd3330856040518463ffffffff1660e01b81526004016111d49392919061195c565b6020604051808303816000875af11580156111f3573d6000803e3d6000fd5b505050506040513d601f19601f8201168201806040525081019061121791906117fa565b5081600260003373ffffffffffffffffffffffffffffffffffffffff1673ffffffffffffffffffffffffffffffffffffffff16815260200190815260200160002060008282546112679190611612565b92505081905550813373ffffffffffffffffffffffffffffffffffffffff167fb3ef81558ed1a50072a492984535a009da8b129c749500b387f1e5f4886bdde560405160405180910390a35050565b6000600260003373ffffffffffffffffffffffffffffffffffffffff1673ffffffffffffffffffffffffffffffffffffffff16815260200190815260200160002054905090565b600080fd5b600073ffffffffffffffffffffffffffffffffffffffff82169050919050565b600061132d82611302565b9050919050565b61133d81611322565b811461134857600080fd5b50565b60008135905061135a81611334565b92915050565b6000819050919050565b61137381611360565b811461137e57600080fd5b50565b6000813590506113908161136a565b92915050565b600080604083850312156113ad576113ac6112fd565b5b60006113bb8582860161134b565b92505060206113cc85828601611381565b9150509250929050565b6000602082840312156113ec576113eb6112fd565b5b60006113fa84828501611381565b91505092915050565b600060208284031215611419576114186112fd565b5b60006114278482850161134b565b91505092915050565b61143981611360565b82525050565b60006020820190506114546000830184611430565b92915050565b600082825260208201905092915050565b7f7a65726f20616464726573732064657465637465640000000000000000000000600082015250565b60006114a160158361145a565b91506114ac8261146b565b602082019050919050565b600060208201905081810360008301526114d081611494565b9050919050565b7f63616e27742073656e6420746f00000000000000000000000000000000000000600082015250565b600061150d600d8361145a565b9150611518826114d7565b602082019050919050565b6000602082019050818103600083015261153c81611500565b9050919050565b7f696e737566666963656e7420616d6f756e740000000000000000000000000000600082015250565b600061157960128361145a565b915061158482611543565b602082019050919050565b600060208201905081810360008301526115a88161156c565b9050919050565b7f4e487b7100000000000000000000000000000000000000000000000000000000600052601160045260246000fd5b60006115e982611360565b91506115f483611360565b925082820390508181111561160c5761160b6115af565b5b92915050565b600061161d82611360565b915061162883611360565b92508282019050808211156116405761163f6115af565b5b92915050565b7f7a65726f20616464726573206465746563746564000000000000000000000000600082015250565b600061167c60148361145a565b915061168782611646565b602082019050919050565b600060208201905081810360008301526116ab8161166f565b9050919050565b7f63616e2774206465706f736974207a65726f0000000000000000000000000000600082015250565b60006116e860128361145a565b91506116f3826116b2565b602082019050919050565b60006020820190508181036000830152611717816116db565b9050919050565b7f696e73756666696369656e7420616d6f756e7400000000000000000000000000600082015250565b600061175460138361145a565b915061175f8261171e565b602082019050919050565b6000602082019050818103600083015261178381611747565b9050919050565b61179381611322565b82525050565b60006040820190506117ae600083018561178a565b6117bb6020830184611430565b9392505050565b60008115159050919050565b6117d7816117c2565b81146117e257600080fd5b50565b6000815190506117f4816117ce565b92915050565b6000602082840312156118105761180f6112fd565b5b600061181e848285016117e5565b91505092915050565b7f6e6f74206f776e65720000000000000000000000000000000000000000000000600082015250565b600061185d60098361145a565b915061186882611827565b602082019050919050565b6000602082019050818103600083015261188c81611850565b9050919050565b60006020820190506118a8600083018461178a565b92915050565b6000815190506118bd8161136a565b92915050565b6000602082840312156118d9576118d86112fd565b5b60006118e7848285016118ae565b91505092915050565b7f696e73756666696369656e742066756e64730000000000000000000000000000600082015250565b600061192660128361145a565b9150611931826118f0565b602082019050919050565b6000602082019050818103600083015261195581611919565b9050919050565b6000606082019050611971600083018661178a565b61197e602083018561178a565b61198b6040830184611430565b949350505050565b7f496e73756666696369656e742066756e64732100000000000000000000000000600082015250565b60006119c960138361145a565b91506119d482611993565b602082019050919050565b600060208201905081810360008301526119f8816119bc565b905091905056fea26469706673582212204ef16d1d6bafaba1325a7d4f92612b6578fa341c726a1b3b61e24871f8b80c2e64736f6c63430008180033",
  "linkReferences": {},
  "deployedLinkReferences": {}
}